:020000040800F2
:1000000000C00020D5270008952500089D25000880
:10001000A5250008AD250008B52500080000000052
:1000200000000000000000000000000011D60008E1
:10003000BD25000800000000F1D7000839D80008ED
:100040001D2800081D2800081D2800081D2800087C
:100050001D2800081D2800081D2800081D2800086C
:100060001D2800081D2800081D2800081D2800085C
:100070001D2800081D2800081D2800081D2800084C
:100080001D2800081D2800081D2800081D2800083C
:10009000C92500081D2800081D2800081D28000883
:1000A0001D2800081D2800081D2800081D2800081C
:1000B000DD250008F1250008052600081D28000898
:1000C0001D2800081D2800081D2800081D280008FC
:1000D0001D2800081D2800081D2800081D280008EC
:1000E0001D2800081D2800081D2800081D280008DC
:1000F000192600081D2800081D2800081D280008D2
:100100001D2800081D2800081D2800081D280008BB
:100110001D280008A92B00082D26000841260008EC
:100120001D2800081D280008212E0008552600085B
:1001300000000000000000000000000000000000BF
:1001400000000000000000000000000000000000AF
:10015000000000000000000000000000000000009F
:10016000000000000000000000000000000000008F
:10017000000000000000000000000000000000007F
:10018000000000000000000000000000000000006F
:10019000000000000000000000000000000000005F
:1001A000000000000000000000000000000000004F
:1001B000000000000000000000000000000000003F
:1001C000000000000000000000000000000000002F
:1001D000000000000000000000000000000000001F
:0401E0005FF8E0F1F3
:1001F00070B54FF0FF0C4CF4E06C1CEA11541DBFBD
:100200001CEA135594EA0C0F95EA0C0F00F0DEF887
:100210002C4481EA030621EA4C5123EA4C5350EA6C
:10022000013518BF52EA033541F4801143F48013BD
:1002300038D0A0FB02CE4FF00005E1FB02E506F04E
:100240000042E0FB03E54FF00006E1FB03569CF0A3
:10025000000F18BF4EF0010EA4F1FF04B6F5007FA9
:1002600064F5407404D25FEA4E0E6D4146EB06061B
:1002700042EAC62141EA55514FEAC52040EA5E50A4
:100280004FEACE2EB4F1FD0C88BFBCF5E06F1ED84E
:10029000BEF1004F08BF5FEA500E50F1000041EB85
:1002A000045170BD06F0004646EA010140EA020032
:1002B00081EA0301B4EB5C04C2BFD4EB0C0541EA54
:1002C000045170BD41F480114FF0000E013C00F369
:1002D000AB8014F1360FDEBF002001F0004170BD8D
:1002E000C4F10004203C35DA0C341BDC04F11404A6
:1002F000C4F1200500FA05F320FA04F001FA05F232
:1003000040EA020001F0004221F0004110EBD370FE
:1003100021FA04F642EB06015EEA430E08BF20EA2A
:10032000D37070BDC4F10C04C4F1200500FA04F3CD
:1003300020FA05F001FA04F240EA020001F000415F
:1003400010EBD37041F100015EEA430E08BF20EAD2
:10035000D37070BDC4F1200500FA05F24EEA020E1A
:1003600020FA04F301FA05F243EA020321FA04F049
:1003700001F0004121FA04F220EA020000EBD37000
:100380005EEA430E08BF20EAD37070BD94F0000F00
:100390000FD101F00046400041EB010111F4801F34
:1003A00008BF013CF7D041EA060195F0000F18BFE5
:1003B000704703F00046520043EB030313F4801F21
:1003C00008BF013DF7D043EA0603704794EA0C0FDB
:1003D0000CEA135518BF95EA0C0F0CD050EA4106F1
:1003E00018BF52EA4306D1D181EA030101F000416E
:1003F0004FF0000070BD50EA410606BF1046194696
:1004000052EA430619D094EA0C0F02D150EA0136A1
:1004100013D195EA0C0F05D152EA03361CBF1046E2
:1004200019460AD181EA030101F0004141F0FE4181
:1004300041F470014FF0000070BD41F0FE4141F405
:10044000780170BD81F0004102E000BF83F00043FD
:1004500030B54FEA41044FEA430594EA050F08BF5F
:1004600090EA020F1FBF54EA000C55EA020C7FEA23
:10047000645C7FEA655C00F0E2804FEA5454D4EBA0
:100480005555B8BF6D420CDD2C4480EA020281EA6A
:10049000030382EA000083EA010180EA020281EAA2
:1004A0000303362D88BF30BD11F0004F4FEA0131F4
:1004B0004FF4801C4CEA113102D0404261EB410103
:1004C00013F0004F4FEA03334CEA133302D0524289
:1004D00063EB430394EA050F00F0A780A4F1010445
:1004E000D5F1200E0DDB02FA0EFC22FA05F280187F
:1004F00041F1000103FA0EF2801843FA05F3594165
:100500000EE0A5F120050EF1200E012A03FA0EFCE3
:1005100028BF4CF0020C43FA05F3C01851EBE3710D
:1005200001F0004507D54FF0000EDCF1000C7EEB2A
:1005300000006EEB0101B1F5801F1BD3B1F5001F68
:100540000CD349085FEA30004FEA3C0C04F1010487
:100550004FEA445212F5800F80F09A80BCF1004FB0
:1005600008BF5FEA500C50F1000041EB045141EA32
:10057000050130BD5FEA4C0C404141EB0101013CFB
:1005800028BFB1F5801FE9D291F0000F04BF0146EA
:100590000020B1FA81F308BF2033A3F10B03B3F1BC
:1005A00020020CDA0C3208DD02F1140CC2F10C024C
:1005B00001FA0CF021FA02F10CE002F11402D8BFAA
:1005C000C2F1200C01FA02F120FA0CFCDCBF41EA76
:1005D0000C019040E41AA2BF01EB0451294330BD45
:1005E0006FEA04041F3C1CDA0C340EDC04F1140422
:1005F000C4F1200220FA04F001FA02F340EA0300F9
:1006000021FA04F345EA030130BDC4F10C04C4F13E
:10061000200220FA02F001FA04F340EA030029461E
:1006200030BD21FA04F0294630BD94F0000F83F468
:10063000801306BF81F480110134013D4EE77FEA4B
:10064000645C18BF7FEA655C29D094EA050F08BF97
:1006500090EA020F05D054EA000C04BF1946104678
:1006600030BD91EA030F1EBF0021002030BD5FEABC
:10067000545C05D14000494128BF41F0004130BDE4
:1006800014F580043CBF01F5801130BD01F0004538
:1006900045F0FE4141F470014FF0000030BD7FEAAB
:1006A000645C1ABF194610467FEA655C1CBF0B46A6
:1006B000024650EA013406BF52EA033591EA030FBD
:1006C00041F4002130BD00BF90F0000F04BF0021B5
:1006D000704730B54FF4806404F132044FF00005E8
:1006E0004FF0000150E700BF90F0000F04BF002161
:1006F000704730B54FF4806404F1320410F00045C7
:1007000048BF40424FF000013EE700BF42004FEAC1
:10071000E2014FEA31014FEA02701FBF12F07F433E
:1007200093F07F4F81F06051704732F07F4208BFF5
:10073000704793F07F4F04BF41F40021704730B5FC
:100740004FF4607401F0004521F000411CE700BF48
:1007500050EA010208BF704730B54FF000050AE0CB
:1007600050EA010208BF704730B511F0004502D5CC
:10077000404261EB41014FF4806404F132045FEACE
:10078000915C3FF4D8AE4FF003025FEADC0C18BF77
:1007900003325FEADC0C18BF033202EBDC02C2F169
:1007A000200300FA03FC20FA02F001FA03FE40EAFB
:1007B0000E0021FA02F11444BDE600BF80F00040B3
:1007C00002E000BF81F0004142001FBF5FEA410329
:1007D00092EA030F7FEA226C7FEA236C6AD04FEA29
:1007E0001262D2EB1363C1BFD2184140484041406E
:1007F000B8BF5B42192B88BF704710F0004F40F420
:10080000000020F07F4018BF404211F0004F41F43B
:10081000000121F07F4118BF494292EA030F3FD007
:10082000A2F1010241FA03FC10EB0C00C3F120031A
:1008300001FA03F100F0004302D5494260EB4000A9
:10084000B0F5000F13D3B0F1807F06D340084FEA14
:10085000310102F10102FE2A51D2B1F1004F40EB09
:10086000C25008BF20F0010040EA03007047490071
:1008700040EB0000013A28BFB0F5000FEDD2B0FA0E
:1008800080FCACF1080CB2EB0C0200FA0CF0AABF31
:1008900000EBC25052421843BCBFD04018437047CF
:1008A00092F0000F81F4000106BF80F400000132D5
:1008B000013BB5E74FEA41037FEA226C18BF7FEAAC
:1008C000236C21D092EA030F04D092F0000F08BFEE
:1008D0000846704790EA010F1CBF0020704712F0D5
:1008E0007F4F04D1400028BF40F00040704712F114
:1008F00000723CBF00F50000704700F0004343F079
:10090000FE4040F4000070477FEA226216BF0846AE
:100910007FEA23630146420206BF5FEA412390EA71
:10092000010F40F4800070474FF0000304E000BF67
:1009300010F0004348BF40425FEA000C08BF704718
:1009400043F0964301464FF000001CE050EA0102DC
:1009500008BF70474FF000030AE000BF50EA0102F1
:1009600008BF704711F0004302D5404261EB4101DE
:100970005FEA010C02BF84460146002043F0B64303
:1009800008BFA3F18053A3F50003BCFA8CF2083A28
:10099000A3EBC25310DB01FA02FC634400FA02FC31
:1009A000C2F12002BCF1004F20FA02F243EB020038
:1009B00008BF20F00100704702F1200201FA02FC9A
:1009C000C2F1200250EA4C0021FA02F243EB02008D
:1009D00008BF20EADC7070474FF0FF0C1CEAD052D1
:1009E0001EBF1CEAD15392EA0C0F93EA0C0F6FD092
:1009F0001A4480EA010C400218BF5FEA41211ED070
:100A00004FF0006343EA501043EA5111A0FB01315B
:100A10000CF00040B1F5000F3EBF490041EAD37130
:100A20005B0040EA010062F17F02FD2A1DD8B3F1AC
:100A3000004F40EBC25008BF20F00100704790F01B
:100A4000000F0CF0004C08BF49024CEA502040EA6D
:100A500051207F3AC2BFD2F1FF0340EAC250704733
:100A600040F400004FF00003013A5DDC12F1190F71
:100A7000DCBF00F000407047C2F10002410021FAE3
:100A800002F1C2F1200200FA02FC5FEA310040F1FB
:100A9000000053EA4C0308BF20EADC70704792F074
:100AA000000F00F0004C02BF400010F4000F013AAC
:100AB000F9D040EA0C0093F0000F01F0004C02BFA7
:100AC000490011F4000F013BF9D041EA0C018FE716
:100AD0000CEAD15392EA0C0F18BF93EA0C0F0AD01C
:100AE00030F0004C18BF31F0004CD8D180EA010042
:100AF00000F00040704790F0000F17BF90F0004FDB
:100B0000084691F0000F91F0004F14D092EA0C0FBC
:100B100001D142020FD193EA0C0F03D14B0218BF4F
:100B2000084608D180EA010000F0004040F0FE4095
:100B300040F40000704740F0FE4040F44000704731
:100B40004FF0FF0C1CEAD0521EBF1CEAD15392EAB0
:100B50000C0F93EA0C0F69D0A2EB030280EA010CA0
:100B600049024FEA402037D04FF0805343EA111139
:100B700043EA10130CF000408B4238BF5B0042F197
:100B80007D024FF4000C8B4224BF5B1A40EA0C003C
:100B9000B3EB510F24BFA3EB510340EA5C00B3EB6E
:100BA000910F24BFA3EB910340EA9C00B3EBD10F5C
:100BB00024BFA3EBD10340EADC001B0118BF5FEAAE
:100BC0001C1CE0D1FD2A3FF650AF8B4240EBC250D7
:100BD00008BF20F0010070470CF0004C4CEA502098
:100BE0007F32C2BFD2F1FF0340EAC250704740F4E7
:100BF00000004FF00003013A37E792F0000F00F0D9
:100C0000004C02BF400010F4000F013AF9D040EA56
:100C10000C0093F0000F01F0004C02BF490011F4EA
:100C2000000F013BF9D041EA0C0195E70CEAD153E2
:100C300092EA0C0F08D142027FF47DAF93EA0C0FC9
:100C40007FF470AF084676E793EA0C0F04D14B02AD
:100C50003FF44CAF08466EE730F0004C18BF31F05F
:100C6000004CCAD130F000427FF45CAF31F0004359
:100C70007FF43CAF5FE700BF4FF0FF3C06E000BFF2
:100C80004FF0010C02E000BF4FF0010C4DF804CD15
:100C90004FEA40024FEA41037FEA226C18BF7FEA25
:100CA000236C11D001B052EA530C18BF90EA010F27
:100CB00058BFB2EB030088BFC81738BF6FEAE170B6
:100CC00018BF40F0010070477FEA226C02D15FEA52
:100CD000402C05D17FEA236CE4D15FEA412CE1D0BE
:100CE0005DF8040B704700BF844608466146FFE785
:100CF0000FB5FFF7C9FF002848BF10F1000F0FBD67
:100D00004DF808EDFFF7F4FF0CBF012000205DF85F
:100D100008FB00BF4DF808EDFFF7EAFF34BF0120E4
:100D200000205DF808FB00BF4DF808EDFFF7E0FF7D
:100D300094BF012000205DF808FB00BF4DF808EDCE
:100D4000FFF7D2FF94BF012000205DF808FB00BF31
:100D50004DF808EDFFF7C8FF34BF012000205DF813
:100D600008FB00BF4FEA4002B2F1FE4F0FD34FF035
:100D70009E03B3EB12620DD94FEA002343F0004308
:100D800010F0004F23FA02F018BF404270474FF0B6
:100D90000000704712F1610F01D1420205D110F03D
:100DA000004008BF6FF0004070474FF000007047F0
:100DB00042000ED2B2F1FE4F0BD34FF09E03B3EBC5
:100DC000126209D44FEA002343F0004323FA02F0F1
:100DD00070474FF00000704712F1610F01D14202DD
:100DE00002D14FF0FF3070474FF00000704700BF56
:100DF0000348044B834202D0034B03B118477047AA
:100E0000F0010020F0010020000000000548064B22
:100E10001B1AD90F01EBA301491002D0034B03B1F8
:100E200018477047F0010020F0010020000000008A
:100E300010B5064C237843B9FFF7DAFF044B13B122
:100E40000448AFF300800123237010BDF00100209F
:100E500000000000ACE7000808B5054B1BB10549D0
:100E60000548AFF30080BDE80840FFF7CFBF00BFE3
:100E700000000000F4010020ACE7000880B584B059
:100E800000AF78607B681B680D4A934213D10D4B0D
:100E9000DB690C4A43F40003D3610A4BDB6903F4BA
:100EA0000003FB60FB6800220521142008F095FE7A
:100EB000142008F0AEFE00BF1037BD4680BD00BF55
:100EC000005C00400010024080B582B000AF786046
:100ED0007B68D3F8D4227B6803F526731946104645
:100EE00009F024FF00BF0837BD4680BD80B582B041
:100EF00000AF78600B46FB707B68D3F8D402FA78B9
:100F0000796813469B001344DB000B4403F5B2736E
:100F10001A68FB78194609F056FF00BF0837BD462E
:100F200080BD80B582B000AF78600B46FB707B68F7
:100F3000D3F8D402FA78796813469B001344DB0097
:100F40000B4424331A68FB78194609F0ADFF00BF43
:100F50000837BD4680BD80B582B000AF78607B6841
:100F6000D3F8D43218460AF0BDF800BF0837BD46A2
:100F700080BD80B584B000AF78600123FB737B68CF
:100F80009B79022B01D000F06FFC7B68D3F8D43240
:100F9000FA7B114618460AF06DF87B68D3F8D43214
:100FA00018460AF026F800BF1037BD4680BD000085
:100FB00080B582B000AF78607B68D3F8D432184631
:100FC0000AF067F87B689B7A002B05D0044B1B69FD
:100FD000034A43F00603136100BF0837BD4680BDD6
:100FE00000ED00E080B582B000AF78607B68D3F898
:100FF000D43218460AF061F800BF0837BD4680BDFC
:1010000080B582B000AF7860284A7B68C2F8D432DD
:101010007B68264AC3F8C022244B254A1A60234B1A
:1010200008221A71214B02229A71204B00229A72D7
:101030001E4B0022DA721D4B00221A731B4803F06C
:10104000C8F80346002B01D000F00EFC7B68D3F8F3
:10105000C00218230022002104F0D9FD7B68D3F8D8
:10106000C00258230022802104F0D1FD7B68D3F810
:10107000C002C0230022812104F0C9FD7B68D3F89F
:10108000C0024FF488730022012104F0C0FD7B6888
:10109000D3F8C0024FF480730022822104F0B7FD20
:1010A000002318460837BD4680BD00BF0C02002053
:1010B000005C004080B584B000AF78600023FB7313
:1010C0000023BB737B68D3F8C032184603F077F96E
:1010D0000346FB73FB7B184600F04EF90346BB73D7
:1010E000BB7B18461037BD4680BD80B584B000AFCD
:1010F0007860084611461A460346FB700B46BB70E3
:1011000013463B800023FB730023BB737B68D3F83B
:10111000C002BB783A88F97803F0CBFA0346FB7338
:10112000FB7B184600F028F90346BB73BB7B1846CF
:101130001037BD4680BD80B584B000AF78600B46E7
:10114000FB700023FB730023BB737B68D3F8C032B2
:10115000FA781146184603F009FB0346FB73FB7B44
:10116000184600F009F90346BB73BB7B18461037DD
:10117000BD4680BD80B584B000AF78600B46FB7083
:101180000023FB730023BB737B68D3F8C032FA786B
:101190001146184603F0B1FB0346FB73FB7B184670
:1011A00000F0EAF80346BB73BB7B18461037BD4618
:1011B00080BD80B584B000AF78600B46FB70002323
:1011C000FB730023BB737B68D3F8C032FA781146F7
:1011D000184603F0F2FB0346FB73FB7B184600F056
:1011E000CBF80346BB73BB7B18461037BD4680BDAA
:1011F00080B485B000AF78600B46FB707B68D3F895
:10120000C032FB6097F90330002B0BDAFB7803F058
:101210007F02F96813469B001344DB000B44123332
:101220001B780BE0FB7803F07F02F96813469B0004
:101230001344DB000B4403F5A9731B7818461437DD
:10124000BD4680BC704780B584B000AF78600B4667
:10125000FB700023FB730023BB737B68D3F8C032A1
:10126000FA781146184603F000FA0346FB73FB7B3D
:10127000184600F081F80346BB73BB7B1846103755
:10128000BD4680BD80B586B000AFF8607A601A4672
:101290000B46FB7213463B810023FB750023BB7595
:1012A000FB68D3F8C0023B89F97A7A6803F0EEFA5A
:1012B0000346FB75FB7D184600F05EF80346BB75E0
:1012C000BB7D18461837BD4680BD80B586B000AFDF
:1012D000F8607A601A460B46FB7213463B81002386
:1012E000FB750023BB75FB68D3F8C0023B89F97A14
:1012F0007A6803F083FA0346FB75FB7D184600F01D
:101300003BF80346BB75BB7D18461837BD4680BD0C
:1013100080B582B000AF78600B46FB707B68D3F875
:10132000C032FA781146184603F099FA0346184677
:101330000837BD4680BD000080B483B000AF786040
:10134000024B18460C37BD4680BC7047E4040020B1
:1013500080B483B000AF786000BF0C37BD4680BC5E
:10136000704780B483B000AF78600B46FB7000BF5D
:101370000C37BD4680BC704780B485B000AF0346D3
:10138000FB710023FB73FB79032B17D801A252F8E2
:1013900023F000BFA5130008AB130008B113000829
:1013A000B71300080023FB730BE00223FB7308E074
:1013B0000123FB7305E00223FB7302E00223FB73AE
:1013C00000BFFB7B18461437BD4680BC704700BF8A
:1013D00080B500AF00221249124809F01BFC0346F9
:1013E000002B01D000F040FA0F490E4809F03DFCF7
:1013F0000346002B01D000F037FA0C4909480AF0E7
:10140000D9FE0346002B01D000F02EFA054809F062
:1014100045FC0346002B01D000F026FA00BF80BD3A
:101420000000002004070020E800002050000020F9
:1014300080B483B000AF03463960FB713B68122271
:101440001A80034B18460C37BD4680BC704700BF5E
:101450001C00002080B483B000AF03463960FB71EC
:101460003B6804221A80034B18460C37BD4680BCEB
:10147000704700BF3000002080B582B000AF034647
:101480003960FB71FB79002B05D13A6807490848A0
:101490000AF079FB04E03A68044905480AF073FB56
:1014A000024B18460837BD4680BD00BFC809002062
:1014B000C4E7000880B582B000AF03463960FB7115
:1014C0003A68044904480AF05EFB024B18460837A4
:1014D000BD4680BDC8090020DCE7000880B582B0A9
:1014E00000AF03463960FB713B681A221A8000F096
:1014F00043F8024B18460837BD4680BD3400002033
:1015000080B582B000AF03463960FB71FB79002BD8
:1015100005D13A68074908480AF035FB04E03A6803
:10152000044905480AF02FFB024B18460837BD4610
:1015300080BD00BFC8090020F0E7000880B582B078
:1015400000AF03463960FB71FB79002B05D13A6887
:10155000074908480AF017FB04E03A6804490548BF
:101560000AF011FB024B18460837BD4680BD00BF8C
:10157000C8090020FCE7000880B584B000AF0F4B1D
:101580001B68FB600E4B1B68BB600E4B1B687B60CF
:10159000FA687B681344FB60FB68002B09D00822C3
:1015A0000949F86800F014F804220849B86800F006
:1015B0000FF800BF1037BD4680BD00BFE8F7FF1F22
:1015C000ECF7FF1FF0F7FF1F360000204600002059
:1015D00080B487B000AFF860B9601346FB71002398
:1015E000FB750023FB7527E0FB681B0F092B0BD84D
:1015F000FB681B0FDAB2FB7D5B001946BB680B442E
:101600003032D2B21A700AE0FB681B0FDAB2FB7DEF
:101610005B001946BB680B443732D2B21A70FB68C4
:101620001B01FB60FB7D5B000133BA6813440022A1
:101630001A70FB7D0133FB75FA7DFB799A42D3D397
:1016400000BF00BF1C37BD4680BC704780B500AFEF
:101650000022054905480AF0C3FD054903480AF080
:10166000D8FD0023184680BDC80F002004070020C5
:10167000C80B002080B400AF00231846BD4680BCD4
:101680007047000080B483B000AF03463960FB713F
:101690001346BB80FB79232B4AD801A252F823F0D2
:1016A00031170008311700083117000831170008FA
:1016B00031170008311700083117000831170008EA
:1016C00031170008311700083117000831170008DA
:1016D00031170008311700083117000831170008CA
:1016E00031170008311700083117000831170008BA
:1016F00031170008311700083117000831170008AA
:101700003117000831170008311700083117000899
:101710003117000831170008311700083117000889
:101720003117000831170008311700083117000879
:1017300000BF002318460C37BD4680BC704700BF71
:1017400080B582B000AF78603960796805480AF0EA
:1017500060FD04480AF070FD002318460837BD46B6
:1017600080BD00BF0407002080B500AF06F028FE52
:1017700000F01EF800F07EF800F04AF900F06EF973
:1017800000F066FB00F0ECFD00F0C0FD00F03EFA5A
:1017900000F090FA00F0E2FA00F090FB00F0E2F9BD
:1017A00001F03DF800F0EAF80BF081FC00BFFDE726
:1017B00080B596B000AF07F130032822002118460B
:1017C0000CF0BAFF07F11C0300221A605A609A60FD
:1017D000DA601A613B1D00221A605A609A60DA6072
:1017E0001A615A6101233B634FF480337B6300230A
:1017F000BB6301233B640223FB644FF480333B65EE
:101800004FF4E0137B6507F13003184606F00AFE3B
:101810000346002B01D000F027F80F23FB610223C1
:101820003B6200237B624FF48063BB620023FB6258
:1018300007F11C030221184607F076F80346002B37
:1018400001D000F011F810237B600023BB613B1D29
:10185000184607F027FA0346002B01D000F004F8E1
:1018600000BF5837BD4680BD80B400AF72B600BF20
:1018700000BFFDE780B588B000AF07F1100300227C
:101880001A605A609A60DA602D4B9B692C4A43F0CB
:10189000200393612A4B9B6903F02003FB60FB68E4
:1018A000274B9B69264A43F010039361244B9B69A5
:1018B00003F01003BB60BB68214B9B69204A43F0D7
:1018C000040393611E4B9B6903F004037B607B68F8
:1018D0001B4B9B691A4A43F008039361184B9B69A1
:1018E00003F008033B603B6800220F21154807F016
:1018F00023FC00224FF47041134807F01DFC0F2316
:101900003B6101237B610023BB610223FB6107F183
:10191000100319460B4807F07BFA4FF470433B6104
:1019200001237B610023BB610223FB6107F11003EC
:101930001946054807F06CFA00BF2037BD4680BD48
:101940000010024000100140000C014080B485B03E
:1019500000AFF860B9607A60FB68064A1A60BB683D
:10196000054A1A607B6880221A6000BF1437BD46A2
:1019700080BC7047D413002028140020B0B596B066
:1019800000AF1D4B07F13C041D460FCD0FC495E879
:10199000070084E8070007F13C03002118460BF01C
:1019A0008DFB0346154A1360154B07F120041D46B5
:1019B0000FCD0FC495E8070084E8070007F1200366
:1019C000002118460BF07AFB03460E4A13600E4BBB
:1019D0003C1D1D460FCD0FC495E8070084E80700A5
:1019E0003B1D002118460BF069FB0346074A1360B4
:1019F00000BF5837BD46B0BD18E80008D01300201E
:101A00003CE80008C813002064E80008CC1300205C
:101A100080B582B000AF104B5B690F4A43F0020300
:101A200053610D4B5B6903F002037B607B6800220E
:101A300005213A2008F0D1F83A2008F0EAF800220F
:101A400005213B2008F0C9F83B2008F0E2F800BF70
:101A50000837BD4680BD00BF0010024080B592B07F
:101A600000AF07F1400300221A605A6007F1240317
:101A700000221A605A609A60DA601A615A619A61AB
:101A80003B1D2022002118460CF056FE334B344AF1
:101A90001A60324B47225A60304B00229A602F4B1B
:101AA0004FF47A72DA602D4B00221A612B4B002220
:101AB0005A612A4B00229A61284801F055FC0346DE
:101AC000002B01D0FFF7D0FE00233B6400237B6492
:101AD00007F140031946214802F0ACFA0346002BF7
:101AE00001D0FFF7C1FE60237B620023BB620023AD
:101AF000FB6200233B6300237B630023BB63002363
:101B0000FB6307F1240300221946144801F056FF35
:101B10000346002B01D0FFF7A7FE00237B600023C4
:101B2000BB600023FB6000233B6100237B614FF41B
:101B30000053BB6100233B623B1D1946074802F07E
:101B4000E5FA0346002B01D0FFF78EFE034800F0B4
:101B500089FB00BF4837BD4680BD00BF2816002066
:101B6000002C014080B58CB000AF07F10C0324229B
:101B7000002118460CF0E0FD3B1D00221A605A605F
:101B8000214B4FF080421A601F4B00225A601E4BBF
:101B900000229A601C4B4FF6FF72DA601A4B00224B
:101BA0001A61194B00229A610323FB6000233B61F9
:101BB00001237B610023BB610023FB6100233B62A7
:101BC00001237B620023BB620023FB6207F10C034D
:101BD00019460D4801F0D2FC0346002B01D0FFF757
:101BE00043FE00237B600023BB603B1D1946064873
:101BF00002F020FA0346002B01D0FFF735FE00BFAC
:101C00003037BD4680BD00BF7016002080B58CB057
:101C100000AF07F10C032422002118460CF08CFDC4
:101C20003B1D00221A605A60204B214A1A601F4B4C
:101C300000225A601D4B00229A601C4B4FF6FF7227
:101C4000DA601A4B00221A61184B00229A610323B2
:101C5000FB6000233B6101237B610023BB61002308
:101C6000FB6100233B6201237B620023BB620023F4
:101C7000FB6207F10C0319460C4801F07FFC034698
:101C8000002B01D0FFF7F0FD00237B600023BB6039
:101C90003B1D1946054802F0CDF90346002B01D043
:101CA000FFF7E2FD00BF3037BD4680BDB81600200B
:101CB0000004004080B58CB000AF07F10C03242273
:101CC000002118460CF038FD3B1D00221A605A60B6
:101CD000204B214A1A601F4B00225A601D4B0022E4
:101CE0009A601C4B4FF6FF72DA601A4B00221A61A1
:101CF000184B00229A610323FB6000233B61012300
:101D00007B610023BB610023FB6100233B62012355
:101D10007B620023BB620023FB6207F10C031946C0
:101D20000C4801F02BFC0346002B01D0FFF79CFD73
:101D300000237B600023BB603B1D1946054802F071
:101D400079F90346002B01D0FFF78EFD00BF303735
:101D5000BD4680BD001700200008004080B58AB055
:101D600000AF07F1200300221A605A603B1D0022D9
:101D70001A605A609A60DA601A615A619A61324B4D
:101D8000324A1A60304B00225A602F4B00229A6070
:101D90002D4B41F61F42DA602B4B00221A612A4B71
:101DA00000229A61284801F0DFFA0346002B01D097
:101DB000FFF75AFD00233B6200237B6207F12003FB
:101DC0001946214802F036F90346002B01D0FFF7EF
:101DD0004BFD60237B600023BB600023FB6000237E
:101DE0007B613B1D00221946174801F0E7FD0346C1
:101DF000002B01D0FFF738FD3B1D04221946124885
:101E000001F0DCFD0346002B01D0FFF72DFD3B1D4B
:101E1000082219460C4801F0D1FD0346002B01D0E1
:101E2000FFF722FD3B1D0C221946074801F0C6FDB5
:101E30000346002B01D0FFF717FD034800F012FA0C
:101E400000BF2837BD4680BD48170020000C004069
:101E500080B582B000AF3B4600221A605A60154B35
:101E6000154A1A60134B41F61F425A60114B00226B
:101E70009A60104B0922DA600E4B00229A610D48DD
:101E800001F0C2F90346002B01D0FFF7EDFC00235F
:101E90003B6000237B603B461946064802F0CAF8C7
:101EA0000346002B01D0FFF7DFFC00BF0837BD461B
:101EB00080BD00BF901700200014004080B58CB09A
:101EC00000AF07F10C032422002118460CF034FC6B
:101ED0003B1D00221A605A60224B234A1A60214B94
:101EE00000225A601F4B00229A601E4B4FF6FF7271
:101EF000DA601C4B00221A611A4B00225A61194BFE
:101F000000229A610323FB6000233B6101237B6174
:101F10000023BB610023FB6100233B6201237B6242
:101F20000023BB620023FB6207F10C0319460D4836
:101F300001F024FB0346002B01D0FFF795FC0023A2
:101F40007B600023BB603B1D1946064802F072F817
:101F50000346002B01D0FFF787FC00BF3037BD469A
:101F600080BD00BFD81700200034014080B485B088
:101F700000AF78607B681B68124A93420CD1124B09
:101F80009B69114A43F4006393610F4B9B6903F40F
:101F90000063FB60FB6810E07B681B680B4A9342A0
:101FA0000BD1094BDB69084A43F00803D361064BA8
:101FB000DB6903F00803BB60BB6800BF1437BD4694
:101FC00080BC7047002C014000100240000C004013
:101FD00080B592B000AF786007F1300300221A603C
:101FE0005A609A60DA607B681B68B3F1804F57D102
:101FF000814BDB69804A43F00103D3617E4BDB698F
:1020000003F00103FB62FB6A7B4B9B697A4A43F056
:1020100004039361784B9B6903F00403BB62BB6AC2
:10202000754B9B69744A43F008039361724B9B693B
:1020300003F008037B627B6A4FF400433B63002399
:102040007B630123BB6307F1300319466B4806F03D
:10205000DFFE08233B6300237B630123BB6307F19F
:1020600030031946664806F0D3FE664B5B683B6456
:102070003B6C23F440733B643B6C43F0E0633B6494
:102080003B6C43F480733B645E4A3B6C53600022BC
:1020900005211C2007F0A1FD1C2007F0BAFDA6E0D9
:1020A0007B681B68584A93423ED1534BDB69524AC6
:1020B00043F00203D361504BDB6903F002033B6240
:1020C0003B6A4D4B9B694C4A43F0080393614A4B72
:1020D0009B6903F00803FB61FB6930233B6300232A
:1020E0007B630123BB6307F130031946444806F0C4
:1020F0008FFE444B5B687B647B6C23F440637B64A2
:102100007B6C43F0E0637B647B6C43F400637B6433
:102110003C4A7B6C5360002205211D2007F05DFDC9
:102120001D2007F076FD62E07B681B68374A93420A
:102130002CD1314BDB69304A43F00403D3612E4B81
:10214000DB6903F00403BB61BB692B4B9B692A4A23
:1021500043F008039361284B9B6903F008037B61FC
:102160007B69C0233B6300237B630123BB6307F1CF
:1021700030031946224806F04BFE002205211E209E
:1021800007F02BFD1E2007F044FD30E07B681B6844
:102190001F4A93422BD1184B9B69174A43F40053B3
:1021A0009361154B9B6903F400533B613B69124BF0
:1021B0009B69114A43F0100393610F4B9B6903F035
:1021C0001003FB60FB68C0233B6300237B63012398
:1021D000BB6307F1300319460E4806F019FE0022D2
:1021E00005212C2007F0F9FC2C2007F012FD00BF80
:1021F0004837BD4680BD00BF0010024000080140C6
:10220000000C0140000001400004004000080040B4
:10221000003401400010014080B584B000AF786008
:102220007B681B680D4A934213D10D4BDB690C4A46
:1022300043F02003D3610A4BDB6903F02003FB600A
:10224000FB6800220521372007F0C7FC372007F084
:10225000E0FC00BF1037BD4680BD00BF0014004049
:102260000010024080B588B000AF786007F110031D
:1022700000221A605A609A60DA607B681B681F4A05
:10228000934219D11E4B9B691D4A43F0040393618D
:102290001B4B9B6903F00403FB60FB684FF48073E6
:1022A0003B6102237B610223FB6107F110031946A6
:1022B000144806F0ADFD1CE07B681B68124A93428F
:1022C00017D10F4B9B690E4A43F0040393610C4BEB
:1022D0009B6903F00403BB60BB680F233B610223CF
:1022E0007B610223FB6107F110031946054806F0E4
:1022F0008FFD00BF2037BD4680BD00BF002C0140D0
:102300000010024000080140000C004080B500AF02
:10231000114B124A1A60104B4FF461225A600E4B57
:1023200000229A600C4B0022DA600B4B00221A61EB
:10233000094B0C225A61084B00229A61064B00227D
:10234000DA61054807F073FC0346002B01D0FFF764
:102350008BFA00BF80BD00BF20180020004C004059
:1023600080B500AF114B124A1A60104B4FF4165251
:102370005A600E4B00229A600C4B0022DA600B4B25
:1023800000221A61094B0C225A61084B00229A6103
:10239000064B0022DA61054807F049FC0346002B92
:1023A00001D0FFF761FA00BF80BD00BF68180020B0
:1023B0000050004080B58CB000AF786007F120037A
:1023C00000221A605A609A60DA607B681B68684A6B
:1023D00093427ED1674BDB69664A43F40023D361A5
:1023E000644BDB6903F40023FB61FB69614B9B6970
:1023F000604A43F0100393615E4B9B6903F0100346
:10240000BB61BB694FF480633B6202237B620323A1
:10241000FB6207F120031946574806F0F9FC4FF418
:1024200000633B6200237B620023BB6207F1200351
:102430001946514806F0ECFC504B514A1A604F4B7C
:1024400000225A604D4B00229A604C4B8022DA6089
:102450004A4B00221A61494B00225A61474B002225
:102460009A61464B0022DA61444806F07DFE03463D
:10247000002B01D0FFF7F8F97B68404ADA633F4A46
:102480007B6853623F4B404A1A603E4B10225A60B1
:102490003C4B00229A603B4B8022DA60394B002291
:1024A0001A61384B00225A61364B00229A61354B33
:1024B0000022DA61334806F057FE0346002B01D0B4
:1024C000FFF7D2F97B682F4A9A632E4A7B685362E2
:1024D00049E07B681B682D4A934244D1254BDB6958
:1024E000244A43F48013D361224BDB6903F4801345
:1024F0007B617B691F4B9B691E4A43F0100393610C
:102500001C4B9B6903F010033B613B69194B9B69B2
:10251000184A43F020039361164B9B6903F0200394
:10252000FB60FB684FF480533B6202237B62032312
:10253000FB6207F1200319460F4806F069FC0423EB
:102540003B6200237B620023BB6207F12003194634
:102550000F4806F05DFC00220521352007F03DFB09
:10256000352007F056FB00BF3037BD4680BD00BFA9
:10257000004C00400010024000100140B018002044
:1025800030040240F418002058040240005000407B
:102590000014014080B400AF00BFFDE780B400AF7D
:1025A00000BFFDE780B400AF00BFFDE780B400AF1F
:1025B00000BFFDE780B400AF00BFFDE780B400AF0F
:1025C00000BFBD4680BC704780B500AF024801F037
:1025D0001CFF00BF80BD00BF0C02002080B500AF13
:1025E000024801F0FBF800BF80BD00BF701600205C
:1025F00080B500AF024801F0F1F800BF80BD00BF18
:10260000B816002080B500AF024801F0E7F800BF1F
:1026100080BD00BF0017002080B500AF024801F068
:10262000DDF800BF80BD00BFD817002080B500AF27
:10263000024801F0D3F800BF80BD00BF3819002068
:1026400080B500AF024801F0C9F800BF80BD00BFEF
:102650009017002080B500AF024806F09FFF00BF32
:1026600080BD00BFF418002080B584B000AF184BC7
:102670009B69174A43F001039361154B9B6903F073
:102680000103BB60BB68124BDB69114A43F0805306
:10269000D3610F4BDB6903F080537B607B680022C2
:1026A0000F216FF0010007F098FA0A4B5B68FB609E
:1026B000FB6823F0E063FB60FB6843F00073FB60A2
:1026C000044AFB68536000BF1037BD4680BD00BFA1
:1026D000001002400000014080B58EB000AF78606D
:1026E0000023FB620023BB62002387F83330344BA6
:1026F000DB69334A43F01003D361314BDB6903F0EC
:102700001003FB60FB6807F1100207F11403114688
:10271000184606F079FA3B6AFB62FB6A002B03D18C
:1027200006F04AFA786304E006F046FA03465B00D6
:102730007B637B6B234AA2FB03239B0C013BBB62A5
:10274000214B224A1A60204B40F2E732DA601E4ADF
:10275000BB6A53601C4B00221A611B4B00229A601B
:10276000194B00229A61184800F04EFD034687F885
:10277000333097F83330002B1BD1134800F094FD11
:10278000034687F8333097F83330002B11D13620C9
:1027900007F03FFA7B680F2B08D8002279683620B3
:1027A00007F01BFA0A4A7B68136002E0012387F8EE
:1027B000333097F8333018463837BD4680BD00BFF8
:1027C0000010024083DE1B43381900200010004037
:1027D000D400002000F012FD0B480C490C4A0023E5
:1027E00002E0D458C4500433C4188C42F9D3094AC7
:1027F000094C002301E013600432A242FBD30BF02A
:10280000A3FFFEF7B1FF704700000020F001002099
:10281000A0EE0008F0010020782C0020FEE780B434
:1028200000AF00BFBD4680BC7047000080B582B0DD
:1028300000AF78607B681B68084A934201D105F0BD
:10284000D5FD7B681B68064A934202D1054800F01B
:10285000EFFB00BF0837BD4680BD00BF0010004041
:1028600000140040801C002080B584B002AF786066
:10287000FEF7AEFD00210E4800F0C6FD0D4800F049
:1028800013FD0D4800F072FB002301930023009319
:1028900000234FF480720949094809F006FE002020
:1028A00009F03AFF01200AF055FC00BFF7E700BF2E
:1028B0002816002090170020181C002080E800082F
:1028C0007529000880B586B000AF78604FF000032E
:1028D0007B6119497869FDF777FF03467B611749EA
:1028E0007869FEF72BFA0346002B02D04FF0000365
:1028F0007B6178690AF0E4FF03464FF07E51184689
:10290000FDF762FF03464FF080411846FEF718F9C5
:1029100003463B610A493869FEF75EF803461846EC
:10292000FEF746FA0346FB60064B1B68FA685A63DB
:1029300001200AF00FFCCCE7A69B443BDA0FC9400C
:1029400000007A442816002080B584B000AF78607B
:102950000AF036F90346FB60054800F04BFB07F12F
:102960000C030A21184609F067FF00BFF4E700BF17
:10297000801C002080B584B000AF78600AF020F998
:102980000346BB600523FB6007F1080305211846D9
:1029900009F052FFF8E7000080B582B000AF786020
:1029A0007B681B68064A934205D1064B1B780721BA
:1029B000184600F065F800BF0837BD4680BD00BF6F
:1029C000005000408019002080B483B000AF7860D0
:1029D0007B681A78184B1A707B6802331B781BB21D
:1029E0001B021AB27B6801331B781BB213431AB265
:1029F000124B1A807B6804331B781BB21B021AB27D
:102A00007B6803331B781BB213431AB20B4B5A80FB
:102A10007B6806331B781BB21B021AB27B68053336
:102A20001B781BB213431AB2044B9A8000BF0C37B9
:102A3000BD4680BC704700BF001F002084190020E5
:102A400080B485B000AF78600B467B800123FB81AA
:102A500000237B7309E0FB897A6813441A787B7B37
:102A600013447B73FB890133FB81FA897B889A428B
:102A7000F1D97B7B18461437BD4680BC70470000F7
:102A800080B582B000AF03460A46FB711346BB71A6
:102A9000414B1B78032B75D801A252F823F000BFDD
:102AA000B12A0008ED2A00081B2B0008652B00083E
:102AB000FB79A52B68D1384B1B780133DAB2364B42
:102AC0001A70364B00221A70F979344B1B785A1C55
:102AD000D0B2324A10701A46314B99542F4B1B78A2
:102AE0001A462F4B13442F4A13604DE0F9792B4BB4
:102AF0001B785A1CD0B2294A10701A46284B995498
:102B0000264B1B785A1EBB799A423FD1224B1B7829
:102B10000133DAB2204B1A7038E0F9791F4B1B7879
:102B20005A1CD0B21D4A10701A461D4B9954BB79DD
:102B30009BB219461A48FFF783FF03461A46FB79F2
:102B400093420CBF01230023DBB2002B06D0124BB3
:102B50001B780133DAB2104B1A7018E00E4B0022CA
:102B60001A7014E0FB795A2B08D10E4B1B681846DB
:102B7000FFF72AFF084B00221A7008E0064B0022DC
:102B80001A7004E000BF02E000BF00E000BF00BF19
:102B90000837BD4680BD00BF8C1900208D1900206C
:102BA00090190020BC1A002080B500AF044807F03F
:102BB00057F901220349024807F089F800BF80BD98
:102BC000681800208019002080B485B000AFF8603C
:102BD000B9603B601346FB71BB68002B45D03B6876
:102BE000002B42D0BB68FA791A703B681A68BB6840
:102BF0005A603B6804331A68BB689A603B680833C4
:102C00001A68BB68DA60BB68BA691A61BB68FA699E
:102C10005A61BB684FF000029A63BB689A6BBB684D
:102C20005A63BB685A6BBB681A63BB684FF00002FB
:102C30001A62BB681A6ABB68DA62BB68DA6ABB6888
:102C40009A62BB689A6ABB685A62BB685A6ABB6878
:102C50005A64BB685A6CBB681A64BB681A6CBB6860
:102C6000DA63BB683A6A9A6400E000BF1437BD4675
:102C700080BC704780B487B000AF78600B467B8023
:102C80004FF6FF73FB8200233B6118E0FB8A1B0AAF
:102C90009BB2DAB279683B690B441B785340FB73F3
:102CA000B7F916305B001AB2FB7B0A4931F81330D2
:102CB0001BB253401BB2FB823B6901333B617B88F3
:102CC0003A699A42E2D3FB8A18461C37BD4680BC5B
:102CD000704700BF94E8000880B485B000AFF8608A
:102CE000B9607A60FB68BA681A60FB687A685A60F3
:102CF000FB6818461437BD4680BC704780B584B069
:102D000000AF78607B681B68DB6B1B685B68C3F592
:102D10008073FB607B681B68184607F022F87B68AD
:102D20004033FA6892B21946786800F00DF87B6873
:102D300018687B6840334FF48072194606F0ECFF48
:102D400000BF1037BD4680BD80B586B000AFF860CB
:102D5000B9601346FB800023FB8257E0FB8ABA6808
:102D600013441B78552B4ED1FB8A03F11202FB88CA
:102D70009A4248DAFB8A0133BA6813441B78AA2BBB
:102D800041D1FB8A1233BA6813441B780A2B3AD11B
:102D9000FB6803F5A070FB8ABA6813441322194636
:102DA0000BF0F6FCFB6803F5A07310211846FFF743
:102DB00061FF03461A46FB6893F850311946FB68D9
:102DC00093F851311B020B439A420CBF012300239D
:102DD000DBB2002B14D0FB680C33FA6802F5A27248
:102DE00012681A60FB680833FA6802F5A472126868
:102DF0001A60FB681033FA6802F5A67212681A604E
:102E0000FB8A1233FB82FB8A0133FB82FA8AFB883E
:102E10009A42A3D300BF00BF1837BD4680BD000053
:102E200080B582B000AF154B5B68184606F0B6FB64
:102E3000124B1B681B681B6803F01003102B0CBFA0
:102E400001230023DBB2002B14BF01230023DBB2DC
:102E5000002B0FD000237B60084B1B681B681B688E
:102E60007B60064B1B681B685B687B607B68034864
:102E7000FFF744FF00BF0837BD4680BDC01A0020E1
:102E800080B500AF034A04490448FFF725FF00BF9F
:102E900080BD00BFB018002020180020C01A0020FC
:102EA00080B500AFFFF7ECFF80BDB0B582B000AFDA
:102EB000786039607A683B6814461D460FCD0FC4B0
:102EC00095E8070084E807007B684833796818466E
:102ED00000F005F87B6818460837BD46B0BD80B4E1
:102EE00083B000AF786039607B683A681A607B68AD
:102EF00018460C37BD4680BC7047000080B582B0D4
:102F000000AF78607B680E491846FFF7CEFF7B68FC
:102F1000A0330C491846FFF7C8FF7B6803F5A07380
:102F200009491846FFF7C1FF7B6803F5F0730749AD
:102F30001846FFF7BAFF7B6818460837BD4680BDC4
:102F4000600000207C00002098000020B4000020D9
:102F500080B582B000AF78607B6868331846FFF7B1
:102F6000CDFF7B6818460837BD4680BD80B586B06A
:102F700004AF78607B686833184600F01DF87B6802
:102F800003F160007B6803F11401074B0293074BC8
:102F90000193074B0093074B0022FFF715FE00BF7C
:102FA0000837BD4680BD00BFCDCCCC3D00007A4483
:102FB00000007A45041F002080B586B000AF78601D
:102FC0007B683B613B697B613B6903F52073FB6078
:102FD00007E07B69BB60B86800F057F87B69A033F5
:102FE0007B617A69FB689A42F3D100BF00BF183752
:102FF000BD4680BD80B586B000AF78607B683B6120
:103000003B697B613B6903F52073FB6007E07B69EB
:10301000BB60B86800F07CF87B69A0337B617A699B
:10302000FB689A42F3D100BF00BF1837BD4680BD90
:1030300080B586B000AF78607B683B613B697B619F
:103040003B6903F52073FB6007E07B69BB60B868F0
:1030500000F036F87B69A0337B617A69FB689A429D
:10306000F3D100BF00BF1837BD4680BD80B500AFAB
:103070000248FFF76DFF00BF80BD00BF181C002095
:1030800080B500AFFFF7F2FF80BD80B582B000AF22
:1030900078607B681A697B685B691946104600F0A6
:1030A000B3F97B689B690421184600F009FB7B6833
:1030B0004833184600F082F800BF0837BD4680BD8F
:1030C0002DE9B00383B000AF78607B689B691B6813
:1030D0005B6A1AB27B681A847B68D3E90A23796831
:1030E000B1F9201009B2C8170C46054612EB0408C6
:1030F00043EB05097B68C3E90A897B689B691B6808
:1031000000225A6200BF0C37BD46BDE8B0037047CD
:10311000B0B584B000AF78607B68D3E90A2391B280
:103120007B68D3E90C2393B2CB1A9BB2FB817B68FB
:10313000D3E90A237968C1E90C23B7F90E301846A0
:10314000FDF7F6FB03461A491846FDF7F9FC03465E
:1031500018491846FDF740FC0346BB607B68BA6817
:103160009A631549B868FDF737FC03461846FDF722
:10317000CDFA04460D467B68D3E910010AA3D3E9D2
:103180000023FDF735F802460B4620462946FDF799
:103190005FF902460B467968C1E9102300BF10377A
:1031A000BD46B0BDAFF30080000000A09999E93F93
:1031B0000000A5440080BB45CDCC4C3E80B586B018
:1031C00004AF78607B6803F150007B68191D074BE2
:1031D0000293074B0193074B0093074B0022FFF725
:1031E000F3FC00BF0837BD4680BD00BF0000204192
:1031F00000007A4400C0DA45101F002080B400AF00
:1032000000BFBD4680BC704780B582B000AF78601B
:103210007B68002B01D1012341E07B6893F83D30AE
:10322000DBB2002B06D17B68002283F83C20786853
:10323000FEF7F2FF7B68022283F83D207B681A6864
:103240007B6804331946104600F09EFC7B6801221F
:1032500083F846207B68012283F83E207B680122A8
:1032600083F83F207B68012283F840207B6801229D
:1032700083F841207B68012283F842207B68012289
:1032800083F843207B68012283F844207B68012275
:1032900083F845207B68012283F83D2000231846EF
:1032A0000837BD4680BD000080B485B000AF7860AF
:1032B0007B6893F83D30DBB2012B01D0012344E061
:1032C0007B68022283F83D207B681B68DA687B6894
:1032D0001B6842F00102DA607B681B681D4A93425A
:1032E00018D07B681B681C4A934213D07B681B680C
:1032F000B3F1804F0ED07B681B68184A934209D007
:103300007B681B68164A934204D07B681B68154A89
:10331000934211D17B681B689B6803F00703FB6035
:10332000FB68062B10D07B681B681A687B681B68DB
:1033300042F001021A6007E07B681B681A687B682C
:103340001B6842F001021A60002318461437BD467C
:1033500080BC7047002C0140003401400004004054
:1033600000080040000C004080B582B000AF7860DB
:103370007B68002B01D1012341E07B6893F83D304D
:10338000DBB2002B06D17B68002283F83C207868F2
:10339000FEF7ECFD7B68022283F83D207B681A680B
:1033A0007B6804331946104600F0EEFB7B6801226F
:1033B00083F846207B68012283F83E207B68012247
:1033C00083F83F207B68012283F840207B6801223C
:1033D00083F841207B68012283F842207B68012228
:1033E00083F843207B68012283F844207B68012214
:1033F00083F845207B68012283F83D20002318468E
:103400000837BD4680BD000080B584B000AF78604D
:1034100039603B68002B09D17B6893F83E30DBB202
:10342000012B14BF01230023DBB222E03B68042BF5
:1034300009D17B6893F83F30DBB2012B14BF012325
:103440000023DBB215E03B68082B09D17B6893F8B9
:103450004030DBB2012B14BF01230023DBB208E0B4
:103460007B6893F84130DBB2012B14BF01230023AA
:10347000DBB2002B01D0012372E03B68002B04D1AA
:103480007B68022283F83E2013E03B68042B04D1C2
:103490007B68022283F83F200BE03B68082B04D1B5
:1034A0007B68022283F8402003E07B68022283F8D5
:1034B00041207B681B6801223968184600F096FDA0
:1034C0007B681B68284A934204D07B681B68274AA4
:1034D000934201D1012300E00023002B07D07B6839
:1034E0001B685A6C7B681B6842F400425A647B6814
:1034F0001B681D4A934218D07B681B681B4A934285
:1035000013D07B681B68B3F1804F0ED07B681B68BB
:10351000174A934209D07B681B68164A934204D02D
:103520007B681B68144A934211D17B681B689B68B7
:1035300003F00703FB60FB68062B10D07B681B6859
:103540001A687B681B6842F001021A6007E07B681A
:103550001B681A687B681B6842F001021A6000232E
:1035600018461037BD4680BD002C01400034014094
:103570000004004000080040000C004080B586B008
:1035800000AF786039607B68002B01D1012393E0A4
:103590007B6893F83D30DBB2002B06D17B680022BC
:1035A00083F83C207868FEF713FD7B68022283F8DD
:1035B0003D207B681B689B687A68126823F480430F
:1035C00023F0070393607B681A687B68043319460D
:1035D000104600F0D9FA7B681B689B687B617B68AA
:1035E0001B689B693B617B681B681B6AFB603B68CF
:1035F0001B687A6913437B613B6923F4407323F0B2
:1036000003033B613B689A683B689B691B02134359
:103610003A6913433B613B6923F4406323F00C0395
:103620003B613B6923F4704323F0F0033B613B684B
:10363000DA683B68DB691B0213433A6913433B6159
:103640003B681B691A013B681B6A1B0313433A69F9
:1036500013433B61FB6823F02203FB603B685A681D
:103660003B685B691B011343FA681343FB607B688B
:103670001B687A699A607B681B683A699A617B6803
:103680001B68FA681A627B68012283F846207B680F
:10369000012283F83E207B68012283F83F207B686B
:1036A000012283F842207B68012283F843207B6853
:1036B000012283F83D20002318461837BD4680BDFF
:1036C00080B584B000AF786039607B6893F83E3095
:1036D000FB737B6893F83F30BB737B6893F8423091
:1036E0007B737B6893F843303B733B68002B10D1AE
:1036F000FB7B012B02D17B7B012B01D0012369E0F5
:103700007B68022283F83E207B68022283F84220F5
:1037100031E03B68042B10D1BB7B012B02D13B7BFA
:10372000012B01D0012355E07B68022283F83F2062
:103730007B68022283F843201DE0FB7B012B08D12C
:10374000BB7B012B05D17B7B012B02D13B7B012B6A
:1037500001D001233EE07B68022283F83E207B6893
:10376000022283F83F207B68022283F842207B6894
:10377000022283F843203B68002B03D03B68042BD4
:1037800008D00FE07B681B6801220021184600F07A
:103790002DFC16E07B681B6801220421184600F00E
:1037A00025FC0EE07B681B6801220021184600F012
:1037B0001DFC7B681B6801220421184600F016FCE2
:1037C00000BF7B681B681A687B681B6842F00102B7
:1037D0001A60002318461037BD4680BD80B584B0FE
:1037E00000AF78607B681B68DB68FB607B681B68E8
:1037F0001B69BB60BB6803F00203002B20D0FB6891
:1038000003F00203002B1BD07B681B686FF00202E1
:103810001A617B6801221A777B681B689B6903F039
:103820000303002B03D0786800F093F905E0786873
:1038300000F086F9786800F095F97B6800221A7725
:10384000BB6803F00403002B20D0FB6803F00403E3
:10385000002B1BD07B681B686FF004021A617B6829
:1038600002221A777B681B689B6903F44073002B64
:1038700003D0786800F06DF905E0786800F060F931
:10388000786800F06FF97B6800221A77BB6803F054
:103890000803002B20D0FB6803F00803002B1BD08B
:1038A0007B681B686FF008021A617B6804221A7734
:1038B0007B681B68DB6903F00303002B03D0786887
:1038C00000F047F905E0786800F03AF9786800F010
:1038D00049F97B6800221A77BB6803F01003002BBC
:1038E00020D0FB6803F01003002B1BD07B681B6803
:1038F0006FF010021A617B6808221A777B681B68D8
:10390000DB6903F44073002B03D0786800F021F9E1
:1039100005E0786800F014F9786800F023F97B6816
:1039200000221A77BB6803F00103002B0CD0FB6860
:1039300003F00103002B07D07B681B686FF00102C6
:103940001A617868FEF772FFBB6803F08003002BF2
:103950000CD0FB6803F08003002B07D07B681B684A
:103960006FF080021A61786800F02AFCBB6803F0EF
:103970004003002B0CD0FB6803F04003002B07D062
:103980007B681B686FF040021A61786800F0F3F8FA
:10399000BB6803F02003002B0CD0FB6803F020036E
:1039A000002B07D07B681B686FF020021A617868D3
:1039B00000F0FDFB00BF1037BD4680BD80B586B06E
:1039C00000AFF860B9607A600023FB75FB6893F87C
:1039D0003C30012B01D10223AEE0FB68012283F8C9
:1039E0003C207B680C2B00F29F8001A252F823F050
:1039F000253A0008293B0008293B0008293B00081C
:103A0000653A0008293B0008293B0008293B0008CB
:103A1000A73A0008293B0008293B0008293B000879
:103A2000E73A0008FB681B68B968184600F032F9ED
:103A3000FB681B689A69FB681B6842F008029A6180
:103A4000FB681B689A69FB681B6822F004029A6194
:103A5000FB681B689969BB681A69FB681B680A43A5
:103A60009A6164E0FB681B68B968184600F082F947
:103A7000FB681B689A69FB681B6842F400629A61E4
:103A8000FB681B689A69FB681B6822F480629A6174
:103A9000FB681B689969BB681B691A02FB681B6895
:103AA0000A439A6143E0FB681B68B968184600F056
:103AB000D5F9FB681B68DA69FB681B6842F00802ED
:103AC000DA61FB681B68DA69FB681B6822F0040294
:103AD000DA61FB681B68D969BB681A69FB681B68F7
:103AE0000A43DA6123E0FB681B68B968184600F0F6
:103AF00029FAFB681B68DA69FB681B6842F40062FC
:103B0000DA61FB681B68DA69FB681B6822F4806273
:103B1000DA61FB681B68D969BB681B691A02FB681C
:103B20001B680A43DA6102E00123FB7500BFFB68F2
:103B3000002283F83C20FB7D18461837BD4680BD27
:103B400080B483B000AF786000BF0C37BD4680BC46
:103B5000704780B483B000AF786000BF0C37BD46BB
:103B600080BC704780B483B000AF786000BF0C3772
:103B7000BD4680BC704780B483B000AF786000BFA2
:103B80000C37BD4680BC704780B485B000AF78600C
:103B900039607B681B68FB607B68394A934213D0AD
:103BA0007B68384A93420FD07B68B3F1804F0BD0CB
:103BB0007B68354A934207D07B68344A934203D0EE
:103BC0007B68334A934208D1FB6823F07003FB60A3
:103BD0003B685B68FA681343FB607B68284A934242
:103BE00013D07B68274A93420FD07B68B3F1804F94
:103BF0000BD07B68244A934207D07B68234A9342C8
:103C000003D07B68224A934208D1FB6823F44073B7
:103C1000FB603B68DB68FA681343FB60FB6823F0DA
:103C200080023B685B691343FB607B68FA681A603B
:103C30003B689A687B68DA623B681A687B689A62BC
:103C40007B680F4A934203D07B680E4A934203D1AC
:103C50003B681A697B681A637B6801225A617B683A
:103C60001B6903F00103002B05D07B681B6923F05F
:103C700001027B681A6100BF1437BD4680BC7047E3
:103C8000002C0140003401400004004000080040C6
:103C9000000C004080B487B000AF786039607B686A
:103CA0001B6A7B617B681B6A23F001027B681A62D6
:103CB0007B685B683B617B689B69FB60FB6823F00A
:103CC0007003FB60FB6823F00303FB603B681B6829
:103CD000FA681343FB607B6923F002037B613B6856
:103CE0009B687A6913437B617B68204A934203D0C7
:103CF0007B681F4A93420CD17B6923F008037B61E8
:103D00003B68DB687A6913437B617B6923F00403BA
:103D10007B617B68154A934203D07B68144A9342C7
:103D200011D13B6923F480733B613B6923F4007339
:103D30003B613B685B693A6913433B613B689B6944
:103D40003A6913433B617B683A695A607B68FA6859
:103D50009A613B685A687B685A637B687A691A6221
:103D600000BF1C37BD4680BC704700BF002C01401F
:103D70000034014080B487B000AF786039607B6860
:103D80001B6A7B617B681B6A23F010027B681A62E6
:103D90007B685B683B617B689B69FB60FB6823F425
:103DA000E043FB60FB6823F44073FB603B681B68E7
:103DB0001B02FA681343FB607B6923F020037B61DD
:103DC0003B689B681B017A6913437B617B68214ACE
:103DD000934203D07B68204A93420DD17B6923F044
:103DE00080037B613B68DB681B017A6913437B615D
:103DF0007B6923F040037B617B68164A934203D0C2
:103E00007B68154A934213D13B6923F480633B617D
:103E10003B6923F400633B613B685B699B003A6943
:103E200013433B613B689B699B003A6913433B61C9
:103E30007B683A695A607B68FA689A613B685A689D
:103E40007B689A637B687A691A6200BF1C37BD463B
:103E500080BC7047002C01400034014080B487B022
:103E600000AF786039607B681B6A7B617B681B6A86
:103E700023F480727B681A627B685B683B617B68B5
:103E8000DB69FB60FB6823F07003FB60FB6823F0D9
:103E90000303FB603B681B68FA681343FB607B69A4
:103EA00023F400737B613B689B681B027A691343B0
:103EB0007B617B68214A934203D07B68204A93420E
:103EC0000DD17B6923F400637B613B68DB681B02D7
:103ED0007A6913437B617B6923F480637B617B6830
:103EE000164A934203D07B68154A934213D13B692B
:103EF00023F480533B613B6923F400533B613B68EF
:103F00005B691B013A6913433B613B689B691B0179
:103F10003A6913433B617B683A695A607B68FA6887
:103F2000DA613B685A687B68DA637B687A691A628F
:103F300000BF1C37BD4680BC704700BF002C01404D
:103F40000034014080B487B000AF786039607B688E
:103F50001B6A3B617B681B6A23F480527B681A6290
:103F60007B685B687B617B68DB69FB60FB6823F4D3
:103F7000E043FB60FB6823F44073FB603B681B6815
:103F80001B02FA681343FB603B6923F400533B6157
:103F90003B689B681B033A6913433B617B68114A8A
:103FA000934203D07B68104A934209D17B6923F482
:103FB00080437B613B685B699B017A6913437B614A
:103FC0007B687A695A607B68FA68DA613B685A688C
:103FD0007B681A647B683A691A6200BF1C37BD4669
:103FE00080BC7047002C01400034014080B487B091
:103FF00000AFF860B9607A60BB6803F01F0301226C
:1040000002FA03F37B61FB681A6A7B69DB431A409F
:10401000FB681A62FB681A6ABB6803F01F037968C1
:1040200001FA03F31A43FB681A6200BF1C37BD464E
:1040300080BC704780B485B000AF786039607B6821
:1040400093F83C30012B01D1022350E07B68012220
:1040500083F83C207B68022283F83D207B681B6844
:104060005B68FB607B681B689B68BB60FB6823F038
:104070007003FB603B681B68FA681343FB607B6856
:104080001B68FA685A607B681B681B4A934218D009
:104090007B681B68194A934213D07B681B68B3F195
:1040A000804F0ED07B681B68154A934209D07B680D
:1040B0001B68144A934204D07B681B68124A9342DF
:1040C0000CD1BB6823F08003BB603B685B68BA68B7
:1040D0001343BB607B681B68BA689A607B680122E7
:1040E00083F83D207B68002283F83C20002318469B
:1040F0001437BD4680BC7047002C0140003401409D
:104100000004004000080040000C004080B485B06E
:1041100000AF786039600023FB607B6893F83C3027
:10412000012B01D102233DE07B68012283F83C2072
:10413000FB6823F0FF023B68DB681343FB60FB680E
:1041400023F440723B689B681343FB60FB6823F4D5
:1041500080623B685B681343FB60FB6823F400628A
:104160003B681B681343FB60FB6823F480523B6889
:104170001B691343FB60FB6823F400523B685B69D7
:104180001343FB60FB6823F480423B68DB69134305
:10419000FB607B681B68FA685A647B68002283F8BE
:1041A0003C20002318461437BD4680BC704780B4BD
:1041B00083B000AF786000BF0C37BD4680BC70474D
:1041C00080B483B000AF786000BF0C37BD4680BCC0
:1041D000704780B584B000AF78607B68002B01D158
:1041E0000123E8E07B6893F89132DBB2002B06D123
:1041F0007B68002283F890227868FCF73FFE7B689A
:10420000032283F891227B6800225A717B681B6825
:10421000184601F061FD7B6818687B6804330ECB9B
:1042200001F037FD0346002B05D07B68022283F89E
:1042300091220123BFE07B681B680021184601F032
:1042400065FD0346002B05D07B68022283F891228E
:104250000123B0E00023FB733EE0FA7B796813464C
:104260009B001344DB000B44113301221A70FA7BCC
:10427000796813469B001344DB000B441033FA7B30
:104280001A70FA7B796813469B001344DB000B44D9
:10429000133300221A70FA7B796813469B0013448B
:1042A000DB000B44203300221A60FA7B7968134646
:1042B0009B001344DB000B44243300221A60FB7B79
:1042C00079685A1C13469B001344DB000B44002200
:1042D0001A60FB7B0133FB737B681B79FA7B9A4284
:1042E000BBD30023FB7344E0FA7B796813469B0041
:1042F0001344DB000B4403F2511300221A70FA7BC3
:10430000796813469B001344DB000B4403F5A87344
:10431000FA7B1A70FA7B796813469B001344DB0022
:104320000B4403F2531300221A70FA7B7968134688
:104330009B001344DB000B4403F5B07300221A60AA
:10434000FA7B796813469B001344DB000B4403F5AA
:10435000B27300221A60FA7B796813469B001344FB
:10436000DB000B4403F5B47300221A60FB7B0133BE
:10437000FB737B681B79FA7B9A42B5D37B6818681C
:104380007B6804330ECB01F0CDFC0346002B05D037
:104390007B68022283F8912201230CE07B680022D3
:1043A0005A737B68012283F891227B681B68184648
:1043B00003F04DFF002318461037BD4680BD80B581
:1043C00082B000AF78607B6893F89032012B01D106
:1043D000022316E07B68012283F890227B681B6829
:1043E000184601F063FC01217868FCF7BAFF7B688E
:1043F0001B68184603F021FF7B68002283F8902297
:10440000002318460837BD4680BD80B588B000AF90
:1044100078607B681B68184603F023FFB861BB69AE
:1044200003F40043002B03D0786800F01AFB19E175
:10443000BB6903F48063002B13D07B681B68B3F85F
:1044400044309AB27B681B6822F4806292B2A3F86F
:1044500044207868FCF78DFD0021786800F005F9AC
:1044600000E1BB6903F48043002B0CD07B681B6820
:10447000B3F844309AB27B681B6822F4804292B24F
:10448000A3F84420EEE0BB6903F40053002B0CD0EA
:104490007B681B68B3F844309AB27B681B6822F4CF
:1044A000005292B2A3F84420DCE0BB6903F48053CD
:1044B000002B27D07B681B68B3F840309AB27B682A
:1044C0001B6822F0040292B2A3F840207B681B68AC
:1044D000B3F840309AB27B681B6822F0080292B2AF
:1044E000A3F840207868FCF77DFD7B681B68B3F873
:1044F00044309AB27B681B6822F4805292B2A3F8CF
:104500004420AFE0BB6903F40063002B00F083801C
:104510000023FB7710E07B681B681A46FB7F9B003B
:104520001A44FB7F128892B25B0020333B4423F88D
:10453000182CFB7F0133FB77FB7F072BEBD97B68C4
:104540001B68B3F840309AB27B681B6842F00102E6
:1045500092B2A3F840207B681B68B3F840309AB24F
:104560007B681B6822F0010292B2A3F8402000BFD2
:104570007B681B68B3F844309BB203F48063002B64
:10458000F6D07B681B68B3F844309AB27B681B682E
:1045900022F4806292B2A3F844200023FB770FE05C
:1045A000FB7F7A6812681146FA7F92000A445B002A
:1045B00020333B4433F8183C1380FB7F0133FB77F7
:1045C000FB7F072BECD97B681B68B3F840309AB2AD
:1045D0007B681B6842F0080292B2A3F840207B6817
:1045E0001B68B3F844309AB27B681B6822F40062FF
:1045F00092B2A3F844207B681B68B3F840309AB2AB
:104600007B681B6842F0040292B2A3F840207868ED
:10461000FCF7CEFC26E0BB6903F40073002B0FD03F
:104620007B681B68B3F844309AB27B681B6822F43D
:10463000007292B2A3F844207868FCF78CFC11E079
:10464000BB6903F48073002B0CD07B681B68B3F844
:1046500044309AB27B681B6822F4807292B2A3F84D
:10466000442000BF2037BD4680BD80B582B000AF7A
:1046700078600B46FB707B6893F89032012B01D178
:10468000022312E07B68012283F890227B68FA788B
:104690005A737B681B68FA781146184603F0BAFD16
:1046A0007B68002283F89022002318460837BD4615
:1046B00080BD80B584B000AF7860084611461A46C8
:1046C0000346FB700B463B801346BB700023FB7216
:1046D00097F90330002B0EDAFB7803F0070213463C
:1046E0009B001344DB0010337A681344FB60FB68C3
:1046F00001225A700EE0FB7803F0070213469B007C
:104700001344DB0003F5A8737A681344FB60FB686D
:1047100000225A70FB7803F00703DAB2FB681A70C4
:104720003A88FB681A61FB68BA78DA70BB78022BAA
:1047300002D1FB6800221A717B6893F89032012B3A
:1047400001D102230EE07B68012283F890227B686E
:104750001B68F968184601F003FB7B68002283F8A8
:104760009022FB7A18461037BD4680BD80B584B0D4
:1047700000AF78600B46FB7097F90330002B0EDA20
:10478000FB7803F0070213469B001344DB00103351
:104790007A681344FB60FB6801225A700EE0FB78D4
:1047A00003F0070213469B001344DB0003F5A873D4
:1047B0007A681344FB60FB6800225A70FB7803F0B0
:1047C0000703DAB2FB681A707B6893F89032012B0A
:1047D00001D102230EE07B68012283F890227B68DE
:1047E0001B68F968184601F07BFE7B68002283F89D
:1047F0009022002318461037BD4680BD80B586B094
:1048000000AFF8607A603B600B46FB72FB7A03F006
:10481000070213469B001344DB0003F5A873FA68F4
:1048200013447B617B697A685A617B693A689A6153
:104830007B690022DA617B6900225A70FB7A03F0FF
:104840000703DAB27B691A70FB681B68796918463E
:1048500002F032F8002318461837BD4680BD80B4F8
:1048600083B000AF78600B46FB70FB7803F0070263
:10487000796813469B001344DB000B4403F5B673C1
:104880001B6818460C37BD4680BC704780B586B0A3
:1048900000AFF8607A603B600B46FB72FB7A03F076
:1048A000070213469B001344DB001033FA681344DD
:1048B0007B617B697A685A617B693A689A617B6936
:1048C000012283F824207B693A681A627B690022FE
:1048D000DA617B6901225A70FB7A03F00703DAB2CE
:1048E0007B691A70FB681B687969184601F0E4FF60
:1048F000002318461837BD4680BD80B584B000AF90
:1049000078600B46FB70FB7803F007037A68127936
:10491000934201D901234CE097F90330002B0EDAC2
:10492000FB7803F0070213469B001344DB001033AF
:104930007A681344FB60FB6801225A700CE0FA7835
:1049400013469B001344DB0003F5A8737A681344F5
:10495000FB60FB6800225A70FB6801229A70FB78AA
:1049600003F00703DAB2FB681A707B6893F89032A1
:10497000012B01D102231CE07B68012283F89022E5
:104980007B681B68F968184603F047FBFB7803F067
:104990000703002B08D17B681A687B6803F5267330
:1049A0001946104603F06CFC7B68002283F89022C5
:1049B000002318461037BD4680BD80B584B000AFD7
:1049C00078600B46FB70FB7803F00F037A6812796E
:1049D000934201D9012340E097F90330002B0EDA0E
:1049E000FB7803F0070213469B001344DB001033EF
:1049F0007A681344FB60FB6801225A700EE0FB7872
:104A000003F0070213469B001344DB0003F5A87371
:104A10007A681344FB60FB6800225A70FB6800222E
:104A20009A70FB7803F00703DAB2FB681A707B68B0
:104A300093F89032012B01D102230EE07B68012212
:104A400083F890227B681B68F968184603F035FBF1
:104A50007B68002283F89022002318461037BD4659
:104A600080BD80B596B000AF7860BBE37B681B6803
:104A7000B3F84430A7F84E30B7F84E30DBB203F04D
:104A80000F0387F84D3097F84D30002B40F07581BB
:104A9000B7F84E3003F01003002B4ED17B681B6833
:104AA0001B889BB223F4E14323F07003FB817B68F6
:104AB0001A68FB896FEA43436FEA53439BB2138042
:104AC0007B6810337B657B681B68B3F850309BB202
:104AD0001A467B6D1B78DB00134402335B007A6857
:104AE0001268134403F580631B88C3F309027B6DCE
:104AF000DA617B6D5A697B6DDB691A447B6D5A61A3
:104B000000217868FCF70DFA7B685B7BDBB2002B39
:104B100000F068837B6D9B69002B40F063837B68AA
:104B20005B7BDBB263F07F03DAB27B681B68A3F8C0
:104B30004C207B6800225A7354E37B6803F5A8730A
:104B40007B657B681B681B88A7F84A30B7F84A303A
:104B500003F40063002B34D07B681B68B3F850303B
:104B60009BB21A467B6D1B78DB00134406335B0057
:104B70007A681268134403F580631B88C3F3090243
:104B80007B6DDA617B6818687B6803F526717B6D45
:104B9000DA887B6DDB699BB203F0C3FB7B681B6823
:104BA0001B889AB240F68F7313403B827B681B6868
:104BB0003A8A42F0800292B21A807868FCF784F94F
:104BC00010E3B7F94A30002B80F20C837B681B6836
:104BD0001B889AB240F68F731340FB837B681B6877
:104BE000FA8B42F0800292B21A807B681B68B3F89D
:104BF00050309BB21A467B6D1B78DB0013440633A2
:104C00005B007A681268134403F580631B88C3F362
:104C100009027B6DDA617B6DDB69002B19D07B6D3E
:104C20005B69002B15D07B6818687B6D59697B6DBB
:104C3000DA887B6DDB699BB203F073FB7B6D5A698D
:104C40007B6DDB691A447B6D5A6100217868FCF743
:104C50004DF97B681B681B88A7F84A30B7F84A30C3
:104C600003F40063002B40F0BD82B7F84A3003F430
:104C70004053B3F5405F00F0B5827B681B68BB61B1
:104C80007B681B68B3F850309BB21A46BB6913446B
:104C9000BB61BB6903F20C437B617B691B889BB2E0
:104CA000C3F309039AB27B691A807B6D1B693E2BA3
:104CB0001DD97B6D1B695B097B647B6D1B6903F0F0
:104CC0001F03002B02D17B6C013B7B647B691B883B
:104CD0009AB27B6C9BB29B029BB213439BB26FEA6E
:104CE00043436FEA53439AB27B691A8026E07B6D97
:104CF0001B69002B0AD17B691B889BB26FEA434377
:104D00006FEA53439AB27B691A8017E07B6D1B6987
:104D10005B087B647B6D1B6903F00103002B02D0F1
:104D20007B6C01337B647B691B889AB27B6C9BB282
:104D30009B029BB213439AB27B691A807B681B6803
:104D40001B889BB223F4804323F070037B827B8A11
:104D500083F480537B827B8A83F400537B827B685D
:104D60001A687B8A43F07F4343F47F0343F4004394
:104D700043F080039BB2138034E27B681B681A46C1
:104D800097F84D309B0013441B88A7F84A30B7F9B9
:104D90004A30002B80F2FC807B681B681A4697F82B
:104DA0004D309B0013441B889AB240F68F7313401A
:104DB000A7F848307B681B681A4697F84D309B006F
:104DC0001344B7F8482042F0800292B21A8097F854
:104DD0004D2013469B001344DB0003F5A8737A684B
:104DE00013447B657B6D1B7B002B25D17B681B6887
:104DF000B3F850309BB21A467B6D1B78DB0013442E
:104E000006335B007A681268134403F580631B88DD
:104E1000C3F30903A7F85030B7F85030002B00F067
:104E200092807B6818687B6D59697B6DDA88B7F86A
:104E3000503003F076FA86E07B6DDB78022B0AD1E6
:104E4000B7F84A301A46796D786800F0D9F9034608
:104E5000A7F8503077E07B681B681A467B6D1B789B
:104E60009B0013441B889BB223F4E04323F07003A0
:104E7000A7F852307B681B681A467B6D1B789B0035
:104E80001A44B7F8523043F07F4343F47F0343F4AE
:104E9000004343F0C0039BB213807B681B681A4633
:104EA0007B6D1B789B0013441B889BB203F48043EB
:104EB000002B24D07B681B68B3F850309BB21A4695
:104EC0007B6D1B78DB00134402335B007A68126849
:104ED000134403F580631B88C3F30903A7F850301C
:104EE000B7F85030002B2ED07B6818687B6D59695D
:104EF0007B6D1A89B7F8503003F013FA23E07B6812
:104F00001B68B3F850309BB21A467B6D1B78DB00F0
:104F1000134406335B007A681268134403F5806318
:104F20001B88C3F30903A7F85030B7F85030002BA3
:104F300009D07B6818687B6D59697B6D5A89B7F811
:104F4000503003F0EEF97B6DDA69B7F850301A444F
:104F50007B6DDA617B6D5A69B7F850301A447B6D0E
:104F60005A617B6D9B69002B05D0B7F850207B6D93
:104F70001B699A4206D27B6D1B7819467868FBF74D
:104F8000B5FF05E07B681B68796D184601F094FC5D
:104F9000B7F84A3003F08003002B00F0238197F824
:104FA0004D2013469B001344DB0010337A681344F2
:104FB0007B657B681B681A4697F84D309B0013444D
:104FC0001B889BB223F4E14323F07003A7F842301F
:104FD0007B681B681A4697F84D309B001A44B7F857
:104FE00042306FEA43436FEA53439BB213807B6DB9
:104FF000DB78012B40F0A2807B6D00229A617B6DF3
:105000001B7B002B00F09380B7F84A3003F040037D
:10501000002B46D07B6D5B78002B26D17B681B680C
:105020007B627B681B68B3F850309BB21A467B6A80
:1050300013447B627B6D1B781A017B6A134403F275
:1050400004433B623B6A1B889BB2C3F309039AB2D9
:105050003B6A1A803B6A1B889BB26FEA43436FEA44
:1050600053439AB23B6A1A8061E07B6D5B78012BF7
:105070005DD17B681B68FB627B681B68B3F85030AE
:105080009BB21A46FB6A1344FB627B6D1B781A01C4
:10509000FB6A134403F20443BB62BB6A00221A801A
:1050A00045E07B681B68FB637B6D5B78002B26D13A
:1050B0007B681B687B637B681B68B3F850309BB2CE
:1050C0001A467B6B13447B637B6D1B781A017B6BE9
:1050D000134403F20C433B633B6B1B889BB2C3F34B
:1050E00009039AB23B6B1A803B6B1B889BB26FEA39
:1050F00043436FEA53439AB23B6B1A8017E07B6DD0
:105100005B78012B13D17B681B68B3F850309BB2DE
:105110001A46FB6B1344FB637B6D1B781A01FB6B18
:10512000134403F20C43BB63BB6B00221A807B6DFC
:105130001B7819467868FBF7F4FE53E0B7F84A305D
:1051400003F48073002B46D17B681B68B3F85030A2
:105150009BB21A467B6D1B78DB00134402335B0065
:105160007A681268134403F580631B88C3F309034C
:10517000A7F840307B6D9A69B7F840309A4207D95A
:105180007B6D9A69B7F84030D21A7B6D9A6102E064
:105190007B6D00229A617B6D9B69002B06D17B6D34
:1051A0001B7819467868FBF7BCFE1BE07B6D5A69DB
:1051B000B7F840301A447B6D5A617B6DDA69B7F8F5
:1051C00040301A447B6DDA617B681B68796D184644
:1051D00001F072FB06E0B7F84A301A46796D78683C
:1051E00000F01BF97B681B68B3F844309BB21BB21C
:1051F000002BFFF63BAC002318465837BD4680BD58
:1052000080B588B000AFF860B9601346FB80FB88BA
:1052100003F48043002B7ED0FB681B68B3F850304A
:105220009BB21A46BB681B78DB00134402335B0059
:10523000FA681268134403F580631B88C3F30903FB
:105240007B83BB689A697B8B9A4206D3BB689A6959
:105250007B8BD21ABB689A6102E0BB6800229A611C
:10526000BB689B69002B23D1FB681B681A46BB688F
:105270001B789B0013441B889BB223F4804323F0CC
:1052800070033B833B8B83F400533B83FB681B68B9
:105290001A46BB681B789B001A443B8B43F07F4344
:1052A00043F47F0343F4004343F080039BB2138035
:1052B000FB8803F04003002B1FD0FB681B681A46D5
:1052C000BB681B789B0013441B889BB223F4E0430C
:1052D00023F07003FB82FB681B681A46BB681B78CF
:1052E0009B001A44FB8A43F07F4343F47F0343F45B
:1052F000004343F0C0039BB213807B8B002B00F074
:105300008780FB681868BB685969BB681A897B8B02
:1053100003F007F87CE0FB681B68B3F850309BB2E1
:105320001A46BB681B78DB00134406335B00FA683F
:105330001268134403F580631B88C3F309037B835E
:10534000BB689A697B8B9A4206D3BB689A697B8B50
:10535000D21ABB689A6102E0BB6800229A61BB68FE
:105360009B69002B23D1FB681B681A46BB681B781E
:105370009B0013441B889BB223F4804323F07003EB
:10538000FB83FB8B83F40053FB83FB681B681A468B
:10539000BB681B789B001A44FB8B43F07F4343F4AC
:1053A0007F0343F4004343F080039BB21380FB88E8
:1053B00003F04003002B1FD1FB681B681A46BB6833
:1053C0001B789B0013441B889BB223F4E04323F01B
:1053D0007003BB83FB681B681A46BB681B789B0085
:1053E0001A44BB8B43F07F4343F47F0343F40043F1
:1053F00043F0C0039BB213807B8B002B08D0FB686B
:105400001868BB685969BB685A897B8B02F089FFB1
:105410007B8B18462037BD4680BD80B5A4B000AF59
:10542000F860B9601346FB80FB8803F04003002B53
:1054300000F0DD81FB681B68B3F850309BB21A4660
:10544000BB681B78DB00134402335B00FA68126808
:10545000134403F580631B88C3F30903A7F8863060
:10546000BB689A69B7F886309A4207D9BB689A69CF
:10547000B7F88630D21ABB689A6102E0BB68002296
:105480009A61BB689B69002B40F0B980BB685B7870
:10549000002B26D1FB681B68FB62FB681B68B3F816
:1054A00050309BB21A46FB6A1344FB62BB681B7800
:1054B0001A01FB6A134403F20443BB62BB6A1B88F4
:1054C0009BB2C3F309039AB2BB6A1A80BB6A1B88FA
:1054D0009BB26FEA43436FEA53439AB2BB6A1A80A6
:1054E0001AE0BB685B78012B16D1FB681B687B63F5
:1054F000FB681B68B3F850309BB21A467B6B1344B1
:105500007B63BB681B781A017B6B134403F2044373
:105510003B633B6B00221A80FB681B687B62BB68A5
:105520005B78002B26D1FB681B68FB61FB681B685E
:10553000B3F850309BB21A46FB691344FB61BB6859
:105540001B781A01FB69134403F20C43BB61BB696E
:105550001B889BB2C3F309039AB2BB691A80BB696B
:105560001B889BB26FEA43436FEA53439AB2BB690D
:105570001A8017E0BB685B78012B13D1FB681B68AE
:10558000B3F850309BB21A467B6A13447B62BB6807
:105590001B781A017B6A134403F20C433B623B6A9B
:1055A00000221A80BB681B781946F868FBF7B9FC23
:1055B000FB8803F48043002B00F0FC82FB681B682F
:1055C0001A46BB681B789B0013441B889BB223F4CC
:1055D000E04323F07003FB82FB681B681A46BB683C
:1055E0001B789B001A44FB8A43F07F4343F47F03FC
:1055F00043F4404343F080039BB21380DAE2FB881C
:1056000003F48043002B21D0FB681B681A46BB685B
:105610001B789B0013441B889BB223F4E04323F0C8
:105620007003A7F88A30FB681B681A46BB681B78B2
:105630009B001A44B7F88A3043F07F4343F47F035A
:1056400043F4404343F080039BB21380BB6893F85C
:105650002430012B40F0AE82BB685A69B7F886301F
:105660001A44BB685A61BB68DA69B7F886301A44D5
:10567000BB68DA61BB681A6ABB681B699A420BD3C4
:10568000BB681B69C7F88C30BB681A6AD7F88C30C6
:10569000D21ABB681A6217E0BB681B6A002B08D1DC
:1056A000B7F88630C7F88C30BB68002283F8242016
:1056B0000AE0BB68002283F82420BB681B6AC7F895
:1056C0008C30BB6800221A62BB685B78002B65D106
:1056D000FB681B68FB63FB681B68B3F850309BB228
:1056E0001A46FB6B1344FB63BB681B781A01FB6B08
:1056F000134403F20443BB63BB6B1B889BB2C3F32D
:1057000009039AB2BB6B1A80D7F88C303E2B1DD997
:10571000D7F88C305B09BB64D7F88C3003F01F03DB
:10572000002B02D1BB6C013BBB64BB6B1B889AB2E4
:10573000BB6C9BB29B029BB213439BB26FEA434389
:105740006FEA53439AB2BB6B1A8044E0D7F88C30AF
:10575000002B0AD1BB6B1B889BB26FEA43436FEAF5
:1057600053439AB2BB6B1A8035E0D7F88C305B0894
:10577000BB64D7F88C3003F00103002B02D0BB6C64
:105780000133BB64BB6B1B889AB2BB6C9BB29B02A0
:105790009BB213439AB2BB6B1A801CE0BB685B7868
:1057A000012B18D1FB681B687B64FB681B68B3F88E
:1057B00050309BB21A467B6C13447B64BB681B78E9
:1057C0001A017B6C134403F204433B64D7F88C301A
:1057D0009AB23B6C1A80FB681868BB685969BB6851
:1057E0001A89D7F88C309BB202F055FDE2E1FB68D4
:1057F0001B68B3F850309BB21A46BB681B78DB00BD
:10580000134406335B00FA681268134403F580639F
:105810001B88C3F30903A7F88630BB689A69B7F8F9
:1058200086309A4207D3BB689A69B7F88630D21A95
:10583000BB689A6102E0BB6800229A61BB689B6901
:10584000002B40F0C080BB685B78002B26D1FB6842
:105850001B68FB67FB681B68B3F850309BB21A46A5
:10586000FB6F1344FB67BB681B781A01FB6F134483
:1058700003F20443BB67BB6F1B889BB2C3F30903EE
:105880009AB2BB6F1A80BB6F1B889BB26FEA43430F
:105890006FEA53439AB2BB6F1A801AE0BB685B7819
:1058A000012B16D1FB681B687B66FB681B68B3F88D
:1058B00050309BB21A467B6E13447B66BB681B78E4
:1058C0001A017B6E134403F204433B663B6E0022D5
:1058D0001A80FB681B687B67BB685B78002B2BD149
:1058E000FB681B68FB66FB681B68B3F850309BB213
:1058F0001A46FB6E1344FB66BB681B781A01FB6EED
:10590000134403F20C43C7F88030D7F880301B886B
:105910009BB2C3F309039AB2D7F880301A80D7F844
:1059200080301B889BB26FEA43436FEA53439AB2BD
:10593000D7F880301A8017E0BB685B78012B13D151
:10594000FB681B68B3F850309BB21A467B6F134458
:105950007B67BB681B781A017B6F134403F20C430F
:105960003B673B6F00221A80BB681B781946F868BA
:10597000FBF7D7FAFB8803F48043002B40F01A8131
:10598000FB681B681A46BB681B789B0013441B8886
:105990009BB223F4E04323F07003A7F88830FB6840
:1059A0001B681A46BB681B789B001A44B7F88830FE
:1059B00043F07F4343F47F0343F4404343F08003C9
:1059C0009BB21380F6E0FB8803F48043002B21D1C7
:1059D000FB681B681A46BB681B789B0013441B8836
:1059E0009BB223F4E04323F07003A7F84E30FB682A
:1059F0001B681A46BB681B789B001A44B7F84E30E8
:105A000043F07F4343F47F0343F4404343F0800378
:105A10009BB21380BB6893F82430012B40F0CA80FE
:105A2000BB685A69B7F886301A44BB685A61BB68CC
:105A3000DA69B7F886301A44BB68DA61BB681A6A5B
:105A4000BB681B699A420BD3BB681B69C7F88C30D3
:105A5000BB681A6AD7F88C30D21ABB681A6217E092
:105A6000BB681B6A002B08D1B7F88630C7F88C30AA
:105A7000BB68002283F824200AE0BB681B6AC7F8D1
:105A80008C30BB6800221A62BB68002283F8242095
:105A9000FB681B687B65BB685B78002B65D1FB6886
:105AA0001B68FB65FB681B68B3F850309BB21A4655
:105AB000FB6D1344FB65BB681B781A01FB6D134437
:105AC00003F20C43BB65BB6D1B889BB2C3F3090398
:105AD0009AB2BB6D1A80D7F88C303E2B1DD9D7F8FF
